:100000000C942A000C9447000C9447000C94470071
:100010000C9447000C9447000C9447000C94470044
:100020000C9447000C9447000C9447000C94470034
:100030000C9447000C94A6000C9447000C94E2002A
:100040000C9447000C9447000C9447000C94470014
:100050000C94470011241FBECFE5D8E0DEBFCDBF12
:1000600010E0A0E6B0E0ECE3F2E002C005900D92F3
:10007000A236B107D9F720E0A2E6B0E001C01D9298
:10008000A436B207E1F70E94CB000C941C010C943B
:10009000000088B3877F88BB2FE986E891E0215074
:1000A00080409040E1F700C0000088B3886088BBC2
:1000B00008951ABA88B3846088BB88B38D7F88BBE3
:1000C0000E9449008FEF8ABB88B38B7F88BB08955D
:1000D000CF93C82F0E945900CBBB88B3897F88BBC0
:1000E0000E944900CF91089581E00E946800089520
:1000F00087E893E10197F1F700C000000E945900E2
:1001000087B38E6087BB88B3817F88BB8FEF8ABB44
:100110000E94740088E30E94680086E00E946800E4
:1001200080E80E9468008FE00E9468000895CF93E5
:10013000C82F0E945900CBBB88B38B7F88BB88B384
:10014000826088BB0E944900CF9108951F920F9250
:100150000FB60F9211242F933F934F935F936F939A
:100160007F938F939F93AF93BF93EF93FF938CB144
:100170000E949700FF91EF91BF91AF919F918F9156
:100180007F916F915F914F913F912F910F900FBE93
:100190000F901F9018950E9478000E94D4007894C8
:1001A0008AB180688AB9FFCF83E389B98BB18D7F2B
:1001B0008BB98AB180618AB98AB188608AB9089599
:1001C0008CB908951F920F920FB60F9211242F939E
:1001D0003F934F935F936F937F938F939F93AF93CF
:1001E000BF93EF93FF9380916000E0916200F091E4
:1001F0006300E80FF11D8081882341F00E94E00038
:10020000809160008F5F8093600005C081E08093E3
:10021000600080936100FF91EF91BF91AF919F913A
:100220008F917F916F915F914F913F912F910F909F
:0C0230000FBE0F901F901895F894FFCFA0
:02023C000101BE
:00000001FF
